:100000000C9434000C943E000C943E000C943E0082
:100010000C943E000C943E000C943E000C943E0068
:100020000C943E000C943E000C943E000C943E0058
:100030000C943E000C943E000C943E000C943E0048
:100040000C943E000C943E000C943E000C943E0038
:100050000C943E000C943E000C943E000C943E0028
:100060000C943E000C943E0011241FBECFEFD4E050
:10007000DEBFCDBF0E94F3000C941F010C94000062
:10008000833441F0843451F0823459F484B1682BC4
:1000900064B9089587B1682B67B908958AB1682B50
:1000A0006AB908958334A9F0843421F1823491F53A
:1000B00085B1862B85B92FE986E891E021508040F3
:1000C0009040E1F700C0000085B16095682365B9F4
:1000D000089588B1862B88B92FE986E891E02150F0
:1000E00080409040E1F700C0000088B1609568232F
:1000F00068B908958BB1862B8BB92FE986E891E01A
:10010000215080409040E1F700C000008BB1609525
:1001100068236BB90895833441F0843451F08234FC
:1001200059F485B1682B65B9089588B1682B68B911
:1001300008958BB1682B6BB90895833449F08434EA
:1001400061F0823471F485B16095682365B90895D2
:1001500088B16095682368B908958BB1609568236C
:100160006BB90895E5ECF0E02081292B2083E4ECC5
:10017000F0E09081982B9083E1ECF0E08081886141
:10018000808380818B7F8083E2ECF0E080818660D9
:1001900080838081877C808308959091C00095FF43
:1001A000FCCF8093C60008958091C00087FFFCCFEC
:1001B0008091C6000895ECE7F0E080818064808340
:1001C000EAE7F0E0808184608083808180688083BA
:1001D000089580917A00806480937A0080917A00FB
:1001E00086FDFCCF08950E94DB006FEF82E40E9441
:1001F000400001E010E00E94E900809178009091B9
:100200007900880F892F881F990B9195C82F6FEF60
:1002100082E40E949D00D0E0B8010D2E01C0660F5F
:100220000A94EAF782E40E948B00DF5FCD17A0F703
:1002300083ED90E30197F1F700C00000DCCFF89464
:02024000FFCFEE
:00000001FF
