:100000000C9434000C943E000C943E000C943E0082
:100010000C943E000C943E000C943E000C943E0068
:100020000C943E000C943E000C943E000C943E0058
:100030000C943E000C943E000C943E000C943E0048
:100040000C943E000C943E000C943E000C943E0038
:100050000C943E000C943E000C943E000C943E0028
:100060000C943E000C943E0011241FBECFEFD4E050
:10007000DEBFCDBF0E9498000C94A9000C94000034
:10008000E5ECF0E02081292B2083E4ECF0E0908186
:10009000982B9083E1ECF0E08081886180838081FF
:1000A0008B7F8083E2ECF0E08081866080838081BA
:1000B000877C808308959091C00095FFFCCF80934A
:1000C000C60008958091C00087FFFCCF8091C600D4
:1000D0000895ECE7F0E0808180648083EAE7F0E057
:1000E0008081846080838081806880830895ECE7CC
:1000F000F0E0808180648083808180628083EAE791
:10010000F0E080818360808380818068808380814B
:1001100080628083808180648083089580917A00EA
:10012000806480937A0080917A0086FDFCCF0895E8
:1001300086E090E00E9440000E9477008091790064
:100140000E945B0087E893E10197F1F700C000008F
:06015000F5CFF894FFCF8B
:00000001FF
