:100000000C9434000C943E000C943E000C943E0082
:100010000C943E000C943E000C943E000C943E0068
:100020000C943E000C943E000C943E000C943E0058
:100030000C943E000C943E000C943E000C943E0048
:100040000C943E000C943E000C943E000C943E0038
:100050000C943E000C943E000C943E000C943E0028
:100060000C943E000C943E0011241FBECFEFD4E050
:10007000DEBFCDBF0E94A0000C94B3000C94000022
:10008000ECE7F0E02081206420839081907F982B22
:100090009083EAE7F0E08081862B8083808180680E
:1000A00080830895ECE7F0E02081206420832081A4
:1000B000206220839081907F982B9083EAE7F0E084
:1000C0008081862B808380818068808380818062AC
:1000D0008083808180648083089580917A00806429
:1000E00080937A0080917A0086FDFCCF0895E5EC3C
:1000F000F0E02081292B2083E4ECF0E09081982B24
:100100009083E1ECF0E080818861808380818B7F47
:100110008083E2ECF0E08081866080838081877C50
:10012000808308959091C00095FFFCCF8093C60016
:1001300008958091C00087FFFCCF8091C60008958C
:1001400086E090E00E94770063E080E00E94520029
:10015000809179000E94920087E893E10197F1F77E
:0A01600000C00000F5CFF894FFCFB7
:00000001FF
