:100000000C9434000C943E000C943E000C943E0082
:100010000C943E000C943E000C943E000C943E0068
:100020000C943E000C943E000C943E000C943E0058
:100030000C943E000C943E000C943E000C943E0048
:100040000C943E000C943E000C943E000C943E0038
:100050000C943E000C943E000C943E000C943E0028
:100060000C943E000C943E0011241FBECFEFD4E050
:10007000DEBFCDBF0E94C7000C94DA000C940000D4
:10008000ECE7F0E02081206420839081907F982B22
:100090009083EAE7F0E08081862B8083808180680E
:1000A00080830895ECE7F0E02081206420832081A4
:1000B000206220839081907F982B9083EAE7F0E084
:1000C0008081862B808380818068808380818062AC
:1000D0008083808180648083089580917A00806429
:1000E00080937A0080917A0086FDFCCF0895E0EC41
:1000F000F0E020812D7F208320812E7F2083E1EC82
:10010000F0E02081206120832081286020832081ED
:100110002B7F2083E2ECF0E020812F7B2083208165
:100120002F77208320812F7E208320812F7D2083A5
:100130002081277F208320812460208320812260EA
:1001400020839093C5008093C40008959091C000CF
:1001500095FFFCCF8093C60008951F93CF93DF9344
:10016000EC0110E0FE01E10FF11D8081811104C05E
:10017000DF91CF911F9108950E94A6001F5FF2CFDB
:100180008091C00087FFFCCF8091C60008958CE06D
:1001900090E00E94770063E080E00E94520080912E
:1001A00079000E94A60087E893E10197F1F700C06B
:0801B0000000F5CFF894FFCF29
:00000001FF
