:100000000C9434000C9449000C9449000C94490061
:100010000C9449000C9449000C9449000C9449003C
:100020000C9449000C9449000C9449000C9449002C
:100030000C9449000C9449000C9449000C9449001C
:100040000C9449000C9449000C9449000C9449000C
:100050000C9449000C94F2010C9449000C94490052
:100060000C9449000C94490011241FBECFEFD4E03A
:10007000DEBFCDBF11E0A0E0B1E0E2EAFAE002C0ED
:1000800005900D92A430B107D9F70E9472020C942A
:100090004F050C940000ECE7F0E0808185608083E0
:1000A000808180648083EAE7F0E0808182608083E1
:1000B000808184608083808180688083089583B795
:1000C000817F826083BFEAE7F0E08081886080837F
:1000D000089520E190E080E033B7316033BF889528
:1000E00033B73E7F33BF4091780050917900840F41
:1000F000951F215089F79695879596958795089530
:100100004F925F926F927F928F929F92AF92BF9227
:10011000CF92DF92EF92FF920F931F93CF93DF93D3
:1001200000D000D000D0CDB7DEB720E030E048EC02
:1001300052E469837A838B839C8369817A818B8182
:100140009C810E94BE0469837A838B839C8369812E
:100150007A818B819C810E942B0520E030E048EC65
:1001600052E469837A838B839C8369817A818B8152
:100170009C810E9437038B018E839D8320E030E0B9
:1001800040E251E469831A838B839C8369817A817D
:100190008B819C810E9437036B017C0120E030E061
:1001A00040E452E46983DA828B83FC8269817A813C
:1001B0008B819C810E94CB0269837A838B839C8391
:1001C00069817A818B819C810E94A903862F0E947C
:1001D0002E02C982DA82EB82FC8269817A818B816C
:1001E0009C810E9415044B015C0120E030E040E45A
:1001F00052E409831A838E818B838D818C8369817C
:100200007A818B819C810E94CB026B017C0120E072
:1002100030E040E251E489829A82AB82BC826981FB
:100220007A818B819C810E94BE049B01AC01C982B2
:10023000DA82EB82FC8269817A818B819C810E94C7
:10024000CA0269837A838B839C8369817A818B81DB
:100250009C810E94A903862F0E942E028EE20E949A
:100260002E0220E030E040E251E409831A838E81BF
:100270008B838D818C8369817A818B819C810E94A3
:10028000BE046B017C0169817A818B819C810E9413
:1002900015042B013C0120E030E040E452E4C98227
:1002A000DA82EB82FC8269817A818B819C810E9457
:1002B000CB024B015C0120E030E040E251E4498296
:1002C0005A826B827C8269817A818B819C810E94B7
:1002D000BE049B01AC0189829A82AB82BC82698197
:1002E0007A818B819C810E94CA0269837A838B8385
:1002F0009C8369817A818B819C810E94A903862FCE
:100300000E942E02C982DA82EB82FC8269817A81A4
:100310008B819C810E9415046B017C0120E030E000
:1003200048EC52E409831A838E818B838D818C8300
:1003300069817A818B819C810E94BE0420E030E03B
:1003400040E452E469837A838B839C8369817A8158
:100350008B819C810E94CB028B018E839D8320E048
:1003600030E040E251E4C982DA82EB82FC826981AA
:100370007A818B819C810E94BE049B01AC01098320
:100380001A838E818B838D818C8369817A818B81A5
:100390009C810E94CA0269837A838B839C836981D2
:1003A0007A818B819C810E94A903862F0E942E0254
:1003B00080E091E026960FB6F894DEBF0FBECDBF69
:1003C000DF91CF911F910F91FF90EF90DF90CF9031
:1003D000BF90AF909F908F907F906F905F904F9065
:1003E0000C94350218959093C5008093C400E0ECFE
:1003F000F0E080818D7F808380818E7F8083E2EC3E
:10040000F0E080818F7B808380818F778083808103
:100410008F7E808380818F7D80838081877F8083B2
:10042000808184608083808182608083E1ECF0E061
:1004300080818B7F808380818061808380818860E0
:1004400080830895E1ECF0E08081806880830895E6
:10045000E1ECF0E080818064808308959091C00099
:1004600095FFFCCF8093C60008951F93CF93DF9331
:10047000EC0110E0FE01E10FF11D8081811104C04B
:10048000DF91CF911F9108950E942E021F5FF2CF3E
:100490008091C00087FFFCCF8091C60008950F9324
:1004A0001F93CF93DF9300E3D0E310E30E94480251
:1004B000C02F082F0E942E020D3089F4105380EDBA
:1004C0008C0F94E6199F800D1124D0539AE0D99F88
:1004D000800D1124DF91CF911F910F9108951D2F51
:1004E000DC2FE4CF00D000D0CDB7DEB78CE090E0B9
:1004F0000E94F3010E944B000E945F0078940E94CA
:1005000069009C0150E040E029833A834B835C837F
:10051000CA01B9010E94D80327EC3BE447E450E448
:1005200069837A838B839C8369817A818B819C81A7
:100530000E94BE042DE33AE04FE950E469837A83D8
:100540008B839C8369817A818B819C810E94BE040C
:1005500020E030E040E859E369837A838B839C8311
:1005600069817A818B819C810E94BE0469837A8330
:100570008B839C8369817A818B819C810E9480001E
:100580003FE946E851E0315040405040E1F700C0BB
:100590000000B5CF5058BB27AA270E94E2020C9456
:1005A0006C040E945E0438F00E94650420F039F467
:1005B0009F3F19F426F40C945B040EF4E095E7FBDE
:1005C0000C942C04E92F0E947D0458F3BA1762079B
:1005D00073078407950720F079F4A6F50C94B70407
:1005E0000EF4E0950B2EBA2FA02D0B01B90190014E
:1005F0000C01CA01A0011124FF27591B99F0593F92
:1006000050F4503E68F11A16F040A22F232F342FD9
:100610004427585FF3CF469537952795A795F04027
:100620005395C9F77EF41F16BA0B620B730B840B3C
:10063000BAF09150A1F0FF0FBB1F661F771F881FF4
:10064000C2F70EC0BA0F621F731F841F48F487954C
:1006500077956795B795F7959E3F08F0B0CF93953E
:10066000880F08F09927EE0F9795879508950E94B7
:100670004B030C946C040E94650458F00E945E04C5
:1006800040F029F45F3F29F00C942C0451110C9494
:10069000B8040C945B040E947D0468F39923B1F3C1
:1006A000552391F3951B550BBB27AA276217730798
:1006B000840738F09F5F5F4F220F331F441FAA1F2C
:1006C000A9F335D00E2E3AF0E0E832D091505040E8
:1006D000E695001CCAF72BD0FE2F29D0660F771F96
:1006E000881FBB1F261737074807AB07B0E809F07C
:1006F000BB0B802DBF01FF2793585F4F3AF09E3F01
:10070000510578F00C942C040C94B8045F3FE4F38A
:10071000983ED4F3869577956795B795F7959F5F43
:10072000C9F7880F911D9695879597F90895E1E08F
:10073000660F771F881FBB1F621773078407BA07EE
:1007400020F0621B730B840BBA0BEE1F88F7E09549
:1007500008950E94850488F09F5798F0B92F992733
:10076000B751B0F0E1F0660F771F881F991F1AF09C
:10077000BA95C9F714C0B13091F00E94B704B1E046
:1007800008950C94B704672F782F8827B85F39F045
:10079000B93FCCF3869577956795B395D9F73EF435
:1007A00090958095709561957F4F8F4F9F4F0895DD
:1007B000E89409C097FB3EF49095809570956195FB
:1007C0007F4F8F4F9F4F9923A9F0F92F96E9BB27B1
:1007D0009395F695879577956795B795F111F8CF2D
:1007E000FAF4BB0F11F460FF1BC06F5F7F4F8F4F98
:1007F0009F4F16C0882311F096E911C0772321F08E
:100800009EE8872F762F05C0662371F096E8862F25
:1008100070E060E02AF09A95660F771F881FDAF77C
:10082000880F9695879597F908950E949F0490F0F8
:100830009F3748F4911116F00C94B80460E070E012
:1008400080E89FEB089526F41B16611D711D811D24
:100850000C9432040C944D0497F99F6780E870E083
:1008600060E00895882371F4772321F09850872B56
:10087000762F07C0662311F499270DC09051862B5F
:1008800070E060E02AF09A95660F771F881FDAF70C
:10089000880F9695879597F908959F3F31F091506D
:1008A00020F4879577956795B795880F911D969554
:1008B000879597F908959FEF80EC089500240A9496
:1008C0001616170618060906089500240A9412162B
:1008D0001306140605060895092E0394000C11F45E
:1008E000882352F0BB0F40F4BF2B11F460FF04C00B
:1008F0006F5F7F4F8F4F9F4F089557FD9058440F64
:10090000551F59F05F3F71F04795880F97FB991F6E
:1009100061F09F3F79F0879508951216130614062B
:10092000551FF2CF4695F1DF08C0161617061806B8
:10093000991FF1CF869571056105089408950E946D
:100940008504A0F0BEE7B91788F4BB279F3860F490
:100950001616B11D672F782F8827985FF7CF8695D9
:1009600077956795B11D93959639C8F30895E894E6
:10097000BB2766277727CB0197F908950E94D104FA
:100980000C946C040E945E0438F00E94650420F010
:10099000952311F00C942C040C945B0411240C94FA
:1009A000B8040E947D0470F3959FC1F3950F50E049
:1009B000551F629FF001729FBB27F00DB11D639F11
:1009C000AA27F00DB11DAA1F649F6627B00DA11DB7
:1009D000661F829F2227B00DA11D621F739FB00D5D
:1009E000A11D621F839FA00D611D221F749F3327CD
:1009F000A00D611D231F849F600D211D822F762F66
:100A00006A2F11249F5750409AF0F1F088234AF042
:100A1000EE0FFF1FBB1F661F771F881F91505040AE
:100A2000A9F79E3F510580F00C942C040C94B80457
:100A30005F3FE4F3983ED4F3869577956795B79535
:100A4000F795E7959F5FC1F7FE2B880F911D96954F
:100A5000879597F908950E948504E8F09E37E8F09D
:100A60009639B8F49E3848F4672F782F8827985F16
:100A7000F9CF86957795679593959539D0F3B62FED
:100A8000B1706B0F711D811D20F487957795679567
:100A900093950C9432040C944D040C94B804F8947F
:020AA000FFCF86
:040AA2000D0A000039
:00000001FF
