:100000000C9434000C943E000C943E000C943E0082
:100010000C943E000C943E000C943E000C943E0068
:100020000C943E000C943E000C943E000C943E0058
:100030000C943E000C943E000C943E000C943E0048
:100040000C943E000C943E000C943E000C943E0038
:100050000C943E000C943E000C943E000C943E0028
:100060000C943E000C943E0011241FBECFEFD4E050
:10007000DEBFCDBF0E94B2000C94D2000C940000F1
:10008000833441F0843451F0823459F484B1682BC4
:1000900064B9089587B1682B67B908958AB1682B50
:1000A0006AB908958334A9F0843421F1823491F53A
:1000B00085B1862B85B92FE986E891E021508040F3
:1000C0009040E1F700C0000085B16095682365B9F4
:1000D000089588B1862B88B92FE986E891E02150F0
:1000E00080409040E1F700C0000088B1609568232F
:1000F00068B908958BB1862B8BB92FE986E891E01A
:10010000215080409040E1F700C000008BB1609525
:1001100068236BB90895833441F0843451F08234FC
:1001200059F485B1682B65B9089588B1682B68B911
:1001300008958BB1682B6BB90895833449F08434EA
:1001400061F0823471F485B16095682365B90895D2
:1001500088B16095682368B908958BB1609568236C
:100160006BB908956FEF82E40E944000C0E011E097
:1001700005C0CC23E1F3CF3F09F41FEFC10F6FEFB0
:1001800082E40E948B00D0E0DC1720F06FEF82E465
:100190000E949D0083E08A95F1F70000DF5FDF3F5A
:0801A00099F7E7CFF894FFCFB7
:00000001FF
