:100000000C9434000C9449000C9449000C94490061
:100010000C9449000C9449000C9449000C9449003C
:100020000C9449000C9449000C9449000C9449002C
:100030000C9449000C9449000C9449000C9449001C
:100040000C9449000C9449000C9449000C9449000C
:100050000C9449000C9449000C9449000C944900FC
:100060000C9449000C94490011241FBECFEFD4E03A
:10007000DEBFCDBF11E0A0E0B1E0E2EAF1E002C0F6
:1000800005900D92A634B107D9F70E947D000C941B
:10009000CF000C940000E5ECF0E02081292B2083B8
:1000A000E4ECF0E09081982B908388E18093C1008C
:1000B00086E08093C20008959091C00095FFFCCF28
:1000C0008093C60008951F93CF93DF93EC0110E057
:1000D000FE01E10FF11D8081811104C0DF91CF91FC
:1000E0001F9108950E945C001F5FF2CF8091C000B5
:1000F00087FFFCCF8091C600089584B18E6084B9DB
:100100008091800081608093800080918100886070
:100110008093810080918100826080938100809132
:10012000800080688093800080918000806280934E
:1001300080008091B00081608093B0008091B00019
:1001400082608093B0008091B10082608093B100A2
:100150008091B00080688093B00086E090E00E94BB
:100160004B0080E091E00E94630084E291E00E94F5
:1001700063000E94760020918A0030918B002093CA
:10018000B300209188003091890030938B00209338
:100190008A0090E09093890080938800E6CFF894DD
:0201A000FFCF8F
:1001A2002D2D2050574D2054696D65722065786160
:1001B2006D706C652077697468204C454473202DFE
:1001C2002D0D0A000D0A456E7465722050574D20A0
:1001D20064757479206379636C652028302D32351B
:0601E20035293A2000005F
:00000001FF
