:100000000C9434000C9451000C9451000C94510049
:100010000C9468000C9451000C9451000C94510005
:100020000C9451000C9451000C9451000C9451000C
:100030000C9451000C9451000C9451000C945100FC
:100040000C9451000C9451000C9451000C945100EC
:100050000C9451000C9451000C9451000C945100DC
:100060000C9451000C94510011241FBECFEFD4E02A
:10007000DEBFCDBF11E0A0E0B1E0E0E9F1E002C0F9
:1000800005900D92AC30B107D9F721E0ACE0B1E0BA
:1000900001C01D92AE30B207E1F70E94BE000C9481
:1000A000C6000C940000E8E6F0E080818160808367
:1000B000ECE6F0E0808185608083089587B18F7CD5
:1000C00087B988B1806388B98AB18FEF8AB90895FA
:1000D0001F921FB61F9211242F933F938F939F93CC
:1000E000EF93FF9326B1809100019091010181303F
:1000F0009105D9F524FF28C080910C0190910D0144
:100100009C012F5F3F4F0997D1F030930D01209351
:100110000C01E0910C01F0910D01EE5FFE4F80812A
:100120008BB91092010110920001FF91EF919F9104
:100130008F913F912F911F901FBE1F901895109285
:100140000D0110920C01E5CF25FFEFCF80910C013E
:1001500090910D01019797FD05C090930D0180933B
:100160000C01D7CF89E090E0F8CF892BF1F681E040
:1001700090E09093010180930001D7CF0E945E0030
:100180000E94530078948FE38BB9FFCFF894FFCF90
:0C01900001003F065B4F666D7D077F6F2E
:00000001FF
