:100000000C9434000C9449000C9449000C94490061
:100010000C9449000C9449000C9449000C9449003C
:100020000C9449000C9449000C9449000C9449002C
:100030000C9449000C9449000C9449000C9449001C
:100040000C9449000C9449000C9449000C9449000C
:100050000C9449000C9449000C9449000C944900FC
:100060000C9449000C94490011241FBECFEFD4E03A
:10007000DEBFCDBF11E0A0E0B1E0E0EDF3E002C0F3
:1000800005900D92A63CB107D9F70E9468010C9427
:10009000E6010C940000E0ECF0E020812D7F20834D
:1000A00020812E7F2083E1ECF0E0208120612083FD
:1000B00020812860208320812B7F2083E2ECF0E0E8
:1000C00020812F7B208320812F77208320812F7E0A
:1000D000208320812F7D20832081277F2083208102
:1000E000246020832081226020839093C500809328
:1000F000C40008959091C00095FFFCCF8093C60086
:1001000008951F93CF93DF93EC0110E0FE01E10F00
:10011000F11D8081811104C0DF91CF911F9108955D
:100120000E947A001F5FF2CF8091C00087FFFCCF52
:100130008091C6000895833441F0843451F08234B4
:1001400059F484B1682B64B9089587B1682B67B9F5
:1001500008958AB1682B6AB908958334A9F084346C
:1001600021F1823491F585B1862B85B92FE986E896
:1001700091E0215080409040E1F700C0000085B13F
:100180006095682365B9089588B1862B88B92FE9F1
:1001900086E891E0215080409040E1F700C00000E7
:1001A00088B16095682368B908958BB1862B8BB9A7
:1001B0002FE986E891E0215080409040E1F700C0AF
:1001C00000008BB1609568236BB90895833441F0CA
:1001D000843451F0823459F485B1682B65B908959F
:1001E00088B1682B68B908958BB1682B6BB90895F5
:1001F000833449F0843461F0823471F485B16095C0
:10020000682365B9089588B16095682368B9089531
:100210008BB1609568236BB90895833469F0843499
:10022000A1F08234D1F494B1862F8095892384B9CA
:1002300085B1682B65B9089597B1862F809589237C
:1002400087B988B1682B68B908959AB1862F8095CF
:1002500089238AB98BB1682B6BB90895982F862FA3
:10026000933439F0943439F0923439F463B18623FD
:10027000089566B1FCCF69B1FACF8FEF089594B5B8
:10028000982B94BD85B5862B85BD0895E0E8F0E0F8
:100290009081982B9083E1E8F0E08081862B808329
:1002A00008952FE38DE093E0215080409040E1F7E6
:1002B00000C000008091840090918500815009F475
:1002C0000895E3ECF9E03197F1F700C00000F6CFB4
:1002D00060E283E40E940D016FEF82E40E949B00C4
:1002E00063E080E00E9446018CE090E00E944B00B9
:1002F00080E091E00E94810089E191E00E9481000C
:1003000080E391E00E9481000E9494008CE491E0DF
:100310000E9481000E9451018AE591E00E948100C3
:100320006FEF82E40E94E600109285001092840034
:1003300060E283E40E942E0181110BC085E691E00A
:100340000E9481006FEF82E40E94F80085EA91E04C
:10035000D9CF86B1182F107285FDFBCFC0918400D4
:10036000D091850084E0D695C7958A95E1F782E81B
:1003700091E00E94810080E0C83E93E0D907D8F464
:10038000805D0E947A008EE20E947A0080E0C4368E
:10039000D105A8F4805D0E947A00CA30D10598F496
:1003A00080E3810F0E947A008C2F805D0E947A008A
:1003B00089E991E0C5CF8F5FC85ED340DDCF8F5F05
:1003C000C456D109E4CF1F5F2A97E7CFF894FFCF37
:1003D0000D0A2121215245414354494F4E20544991
:1003E0004D45522121210D0A002D2D2D2D2D2D2D74
:1003F0002D2D2D2D2D2D2D2D2D2D2D2D2D0D0A009D
:10040000507265737320616E79206B657920746F0B
:100410002073746172742E2E2E0D0A000D0A42652F
:100420002072656164792E2E2E000D0A537461725C
:1004300074210D0A00596F75206368656174206F1F
:100440006E6C7920796F757273656C662E2E2E0D29
:100450000A000D0A596F7572207265616374696FC5
:100460006E2074696D653A2000207365636F6E6459
:10047000732E0D0A00507265737320616E79206BC4
:1004800065792C20746F2074727920616761696EC0
:060490002E2E2E0D0A00C5
:00000001FF
