:100000000C9434000C943E000C943E000C943E0082
:100010000C943E000C943E000C943E000C943E0068
:100020000C943E000C943E000C943E000C943E0058
:100030000C943E000C943E000C943E000C943E0048
:100040000C943E000C943E000C943E000C943E0038
:100050000C943E000C943E000C943E000C943E0028
:100060000C943E000C943E0011241FBECFEFD4E050
:10007000DEBFCDBF0E9434010C9455010C940000EA
:10008000833441F0843451F0823459F484B1682BC4
:1000900064B9089587B1682B67B908958AB1682B50
:1000A0006AB908958334A9F0843421F1823491F53A
:1000B00085B1862B85B92FE986E891E021508040F3
:1000C0009040E1F700C0000085B16095682365B9F4
:1000D000089588B1862B88B92FE986E891E02150F0
:1000E00080409040E1F700C0000088B1609568232F
:1000F00068B908958BB1862B8BB92FE986E891E01A
:10010000215080409040E1F700C000008BB1609525
:1001100068236BB90895833441F0843451F08234FC
:1001200059F485B1682B65B9089588B1682B68B911
:1001300008958BB1682B6BB90895833449F08434EA
:1001400061F0823471F485B16095682365B90895D2
:1001500088B16095682368B908958BB1609568236C
:100160006BB90895833469F08434A1F08234D1F4FA
:1001700094B1862F8095892384B985B1682B65B9A0
:10018000089597B1862F8095892387B988B1682B08
:1001900068B908959AB1862F809589238AB98BB161
:1001A000682B6BB90895982F862F933439F09434C7
:1001B00039F0923439F463B18623089566B1FCCFE7
:1001C00069B1FACF8FEF0895E0ECF0E020812D7F48
:1001D000208320812E7F2083E1ECF0E020812061CC
:1001E000208320812860208320812B7F2083E2ECE4
:1001F000F0E020812F7B208320812F7720832081B6
:100200002F7E208320812F7D20832081277F2083C4
:100210002081246020832081226020839093C50068
:100220008093C40008959091C00095FFFCCF809307
:10023000C60008951F93CF93DF93EC0110E0FE01F9
:10024000E10FF11D8081811104C0DF91CF911F91D9
:1002500008950E9413011F5FF2CF8091C00087FFB5
:10026000FCCF8091C600089561E082E40E944000C6
:1002700062E082E40E94B2008CE090E00E94E40020
:1002800061E082E40E94520080E30E94130162E078
:1002900082E40E94D3008111FACF88E50E94130105
:0E02A00061E082E40E945200F2CFF894FFCF9A
:00000001FF
