:100000000C9434000C9451000C9451000C94510049
:100010000C9451000C9451000C9451000C9451001C
:100020000C9451000C9451000C9451000C9451000C
:100030000C9451000C9466000C9451000C945100E7
:100040000C9451000C9451000C9451000C945100EC
:100050000C9451000C9451000C9451000C945100DC
:100060000C9451000C94510011241FBECFEFD4E02A
:10007000DEBFCDBF11E0A0E0B1E0E4E3F1E002C0FB
:1000800005900D92AA30B107D9F721E0AAE0B1E0BE
:1000900001C01D92AC30B207E1F70E9490000C94B1
:1000A00098000C9400001092850010928400109229
:1000B000800082E080938100EFE6F0E08081816043
:1000C000808308958AB18FEF8AB908951F921FB671
:1000D0001F9211248F93EF93FF9380910A01813037
:1000E000C9F480910B018F5F80930B018A3010F06F
:1000F00010920B01E0910B01F0E0E050FF4F808186
:100100008BB910920A01FF91EF918F911F901FBE42
:100110001F90189580910A018F5F80930A01F3CF99
:100120000E9453000E94620078948FE38BB9FFCF46
:04013000F894FFCF71
:0A0134003F065B4F666D7D077F6F8D
:00000001FF
