:100000000C9434000C9451000C9451000C94510049
:100010000C9451000C9451000C9451000C9451001C
:100020000C9451000C9451000C9451000C9451000C
:100030000C9451000C9451000C9451000C945100FC
:100040000C9451000C9451000C948B000C945100B2
:100050000C9451000C9451000C9451000C945100DC
:100060000C9451000C94510011241FBECFEFD8E026
:10007000DEBFCDBF11E0A0E0B1E0E6EEF1E002C0EE
:1000800005900D92AE3AB107D9F721E0AEEAB1E0A2
:1000900001C01D92AF3AB207E1F70E94B5000C947F
:1000A000F1000C940000E2ECF0E02081206C208351
:1000B00020812F7C20832081277F2083A1ECB0E04A
:1000C0002C912B7F2C932081266020839093C50058
:1000D0008093C40088E98C930895FC01819181117B
:1000E00001C008959091C00095FFFCCF8093C60099
:1000F000F5CF20990AC080E091E00E946D00219B1D
:1001000007C086E591E00C946D0087E291E0F5CFA1
:100110008EE791E0F8CF1F920F920FB60F92112445
:100120002F933F934F935F936F937F938F939F93FF
:10013000AF93BF93EF93FF938091C6008093AE017E
:10014000843711F40E947900FF91EF91BF91AF9134
:100150009F918F917F916F915F914F913F912F91DF
:100160000F900FBE0F901F90189500D0CDB7DEB73F
:100170001A8219828BED9FEF0E9453002098219ADA
:10018000789491E0189929C08981811126C0E7E807
:10019000F3E13197F1F700C00000189914C08A818B
:1001A000833088F4299AFFE926E831E0F1502040B5
:1001B0003040E1F700C000002998E3E2F4EF319706
:1001C000F1F700C000008A818F5F8A838A818330C3
:1001D000C9F69983189BFECFD5CF299819821A8228
:0601E000D1CFF894FFCF1F
:1001E600506F727420422C2050696E203020636F4D
:1001F6006E6669677572656420617320616E206939
:100206006E7075740A0D004552524F523A20506F67
:10021600727420422C2050696E203020636F6E6607
:10022600696775726564206E6F742070726F706591
:10023600726C790A0D00506F727420422C2050693E
:100246006E203120636F6E66696775726564206122
:100256007320616E206F75747075740A0D004552B7
:10026600524F523A20506F727420422C2050696EC1
:10027600203120636F6E66696775726564206E6FE4
:0E028600742070726F7065726C790A0D000042
:00000001FF
