:100000000C9434000C943E000C943E000C943E0082
:100010000C943E000C943E000C943E000C943E0068
:100020000C943E000C943E000C943E000C943E0058
:100030000C943E000C943E000C943E000C943E0048
:100040000C943E000C943E000C943E000C943E0038
:100050000C943E000C943E000C943E000C943E0028
:100060000C943E000C943E0011241FBECFEFD4E050
:10007000DEBFCDBF0E94E6000C9407010C94000087
:10008000833441F0843451F0823459F484B1682BC4
:1000900064B9089587B1682B67B908958AB1682B50
:1000A0006AB908958334A9F0843421F1823491F53A
:1000B00085B1862B85B92FE986E891E021508040F3
:1000C0009040E1F700C0000085B16095682365B9F4
:1000D000089588B1862B88B92FE986E891E02150F0
:1000E00080409040E1F700C0000088B1609568232F
:1000F00068B908958BB1862B8BB92FE986E891E01A
:10010000215080409040E1F700C000008BB1609525
:1001100068236BB90895833469F08434A1F0823484
:10012000D1F494B1862F8095892384B985B1682B49
:1001300065B9089597B1862F8095892387B988B1CD
:10014000682B68B908959AB1862F809589238AB95A
:100150008BB1682B6BB90895982F862F933439F0A3
:10016000943439F0923439F463B18623089566B13A
:10017000FCCF69B1FACF8FEF0895E5ECF0E0208174
:10018000292B2083E4ECF0E09081982B9083E1EC24
:10019000F0E080818861808380818B7F8083E2ECC6
:1001A000F0E08081866080838081877C80830895F1
:1001B0009091C00095FFFCCF8093C6000895809178
:1001C000C00087FFFCCF8091C600089561E082E403
:1001D0000E94400062E082E40E948B0086E090E092
:1001E0000E94BD0061E082E40E94520080E30E9410
:1001F000D80062E082E40E94AC008111FACF88E569
:100200000E94D80061E082E40E945200F2CFF8948C
:02021000FFCF1E
:00000001FF
