:100000000C9434000C943E000C943E000C943E0082
:100010000C943E000C943E000C943E000C943E0068
:100020000C943E000C943E000C943E000C943E0058
:100030000C943E000C943E000C943E000C943E0048
:100040000C943E000C943E000C943E000C943E0038
:100050000C943E000C943E000C943E000C943E0028
:100060000C943E000C943E0011241FBECFEFD4E050
:10007000DEBFCDBF0E94BF000C94FD000C940000B9
:100080009093C5008093C400E0ECF0E080818D7F08
:10009000808380818E7F8083E2ECF0E080818F7BA3
:1000A000808380818F77808380818F7E8083808131
:1000B0008F7D80838081877F80838081846080833F
:1000C000808182608083E1ECF0E080818B7F80839F
:1000D0008081806180838081886080830895E1ECE5
:1000E000F0E08081806880830895E1ECF0E0808119
:1000F0008064808308959091C00095FFFCCF809329
:10010000C60008951F93CF93DF93EC0110E0FE012A
:10011000E10FF11D8081811104C0DF91CF911F910A
:1001200008950E947B001F5FF2CF8091C00087FF7F
:10013000FCCF8091C60008950F931F93CF93DF9358
:1001400000E3D0E310E30E949500C02F082F0E9427
:100150007B000D3089F4105380ED8C0F94E6199FCD
:10016000800D1124D0539AE0D99F800D1124DF9186
:10017000CF911F910F9108951D2FDC2FE4CF84B1F3
:100180008E6084B98091800081608093800080912E
:1001900081008860809381008091810082608093DB
:1001A0008100809180008068809380008091800031
:1001B0008062809380008091B00081608093B00065
:1001C0008091B00082608093B0008091B100826025
:1001D0008093B1008091B00080688093B0008AE085
:1001E0008093B3008AE090E090938B0080938A0024
:0E01F0009093890080938800FFCFF894FFCF92
:00000001FF
