:100000000C9434000C943E000C943E000C943E0082
:100010000C943E000C943E000C943E000C943E0068
:100020000C943E000C943E000C943E000C943E0058
:100030000C943E000C943E000C943E000C943E0048
:100040000C943E000C943E000C943E000C943E0038
:100050000C943E000C943E000C943E000C943E0028
:100060000C943E000C943E0011241FBECFEFD8E04C
:10007000DEBFCDBF0E9440000C9456000C940000DF
:10008000209A2FE38DE093E0215080409040E1F7EB
:1000900000C00000289A2FE38DE093E021508040BB
:1000A0009040E1F700C000002898EBCFF894FFCF14
:00000001FF
