:100000000C9434000C9451000C9451000C94510049
:100010000C9451000C9451000C9451000C9451001C
:100020000C9451000C9451000C9451000C9451000C
:100030000C9451000C9462000C9451000C945100EB
:100040000C9451000C9451000C9451000C945100EC
:100050000C9451000C9451000C9451000C945100DC
:100060000C9451000C94510011241FBECFEFD4E02A
:10007000DEBFCDBF11E0A0E0B1E0EAEBF1E002C0ED
:1000800005900D92AA30B107D9F721E0AAE0B1E0BE
:1000900001C01D92AC30B207E1F70E94D0000C9471
:1000A000DB000C94000010928500109284001092E6
:1000B000800082E080938100EFE6F0E08081816043
:1000C000808308951F920F920FB60F9211242F93E1
:1000D0003F934F935F936F937F938F939F93AF93D0
:1000E000BF93EF93FF9380910B01813011F58091C5
:1000F0000A018F5F8A30D0F480930A0160910A016F
:1001000082E40E94B10010920B01FF91EF91BF9128
:10011000AF919F918F917F916F915F914F913F919F
:100120002F910F900FBE0F901F90189510920A01FB
:10013000E5CF80910B018F5F80930B01E6CF833475
:1001400041F0843451F0823459F484B18FEF84B992
:10015000089587B18FEF87B908958AB18FEF8AB973
:100160000895E62F833461F0843491F08234B9F439
:1001700085B1F0E0E050FF4F9081892B85B908955B
:1001800088B1F0E0E050FF4F9081892B88B9089545
:100190008BB1F0E0E050FF4F9081892B8BB908952F
:1001A0000E94530082E40E949F00789460E082E401
:0A01B0000E94B100FFCFF894FFCFCA
:0A01BA003F065B4F666D7D077F6F07
:00000001FF
