:100000000C9434000C943E000C943E000C943E0082
:100010000C943E000C943E000C943E000C943E0068
:100020000C943E000C943E000C943E000C943E0058
:100030000C943E000C943E000C943E000C943E0048
:100040000C943E000C943E000C943E000C943E0038
:100050000C943E000C943E000C943E000C943E0028
:100060000C943E000C943E0011241FBECFEFD4E050
:10007000DEBFCDBF0E94E9000C9417010C94000074
:10008000ECE7F0E02081206420839081907F982B22
:100090009083EAE7F0E08081862B8083808180680E
:1000A00080830895ECE7F0E02081206420832081A4
:1000B000206220839081907F982B9083EAE7F0E084
:1000C0008081862B808380818068808380818062AC
:1000D0008083808180648083089580917A00806429
:1000E00080937A0080917A0086FDFCCF0895833456
:1000F00041F0843451F0823459F484B1682B64B9EE
:10010000089587B1682B67B908958AB1682B6AB9D9
:1001100008958334A9F0843421F1823491F585B1B6
:10012000862B85B92FE986E891E0215080409040E8
:10013000E1F700C0000085B16095682365B90895B6
:1001400088B1862B88B92FE986E891E0215080405C
:100150009040E1F700C0000088B16095682368B95D
:1001600008958BB1862B8BB92FE986E891E0215059
:1001700080409040E1F700C000008BB1609568239B
:100180006BB90895833441F0843451F0823459F4CA
:1001900085B1682B65B9089588B1682B68B9089551
:1001A0008BB1682B6BB90895833449F0843461F0C6
:1001B000823471F485B16095682365B9089588B17A
:1001C0006095682368B908958BB1609568236BB911
:1001D000089564E080E00E9440006FEF82E40E9496
:1001E000770001E010E00E946D008091780090910E
:1001F0007900880F892F881F990B9195C82F6FEF71
:1002000082E40E94D400D0E0B8010D2E01C0660F38
:100210000A94EAF782E40E94C200DF5FCD17A0F7DC
:1002200083ED90E30197F1F700C00000DCCFF89474
:02023000FFCFFE
:00000001FF
